{
  "_format": "hh-sol-artifact-1",
  "contractName": "Diamond",
  "sourceName": "contracts/Diamond.sol",
  "abi": [
    {
      "inputs": [],
      "stateMutability": "nonpayable",
      "type": "constructor"
    },
    {
      "anonymous": false,
      "inputs": [
        {
          "indexed": true,
          "internalType": "address",
          "name": "previousOwner",
          "type": "address"
        },
        {
          "indexed": true,
          "internalType": "address",
          "name": "newOwner",
          "type": "address"
        }
      ],
      "name": "OwnershipTransferred",
      "type": "event"
    },
    {
      "stateMutability": "payable",
      "type": "fallback"
    },
    {
      "inputs": [
        {
          "internalType": "address",
          "name": "_facetAddress",
          "type": "address"
        },
        {
          "internalType": "bytes4[]",
          "name": "_selectors",
          "type": "bytes4[]"
        }
      ],
      "name": "addFacet",
      "outputs": [],
      "stateMutability": "nonpayable",
      "type": "function"
    },
    {
      "inputs": [],
      "name": "owner",
      "outputs": [
        {
          "internalType": "address",
          "name": "",
          "type": "address"
        }
      ],
      "stateMutability": "view",
      "type": "function"
    },
    {
      "inputs": [
        {
          "internalType": "bytes4[]",
          "name": "_selectors",
          "type": "bytes4[]"
        }
      ],
      "name": "removeFacet",
      "outputs": [],
      "stateMutability": "nonpayable",
      "type": "function"
    },
    {
      "inputs": [
        {
          "internalType": "bytes4",
          "name": "",
          "type": "bytes4"
        }
      ],
      "name": "selectorToFacet",
      "outputs": [
        {
          "internalType": "address",
          "name": "",
          "type": "address"
        }
      ],
      "stateMutability": "view",
      "type": "function"
    },
    {
      "stateMutability": "payable",
      "type": "receive"
    }
  ],
  "bytecode": "0x608060405234801561001057600080fd5b506100203361002560201b60201c565b61012f565b600061003561010260201b60201c565b905060008160010160009054906101000a900473ffffffffffffffffffffffffffffffffffffffff169050828260010160006101000a81548173ffffffffffffffffffffffffffffffffffffffff021916908373ffffffffffffffffffffffffffffffffffffffff1602179055508273ffffffffffffffffffffffffffffffffffffffff168173ffffffffffffffffffffffffffffffffffffffff167f8be0079c531659141344cd1fd0a4f28419497f9722a3daafe3b4186f6b6457e060405160405180910390a3505050565b6000807f6fd6f6851971e3953ea076c1994938255f4bba65b0c8e9a21f48109fe76be28690508091505090565b610b8d8061013e6000396000f3fe6080604052600436106100435760003560e01c806325b3a334146102015780635547dad61461022a5780638da5cb5b14610253578063ae7473ac1461027e5761004a565b3661004a57005b600080600080357fffffffff00000000000000000000000000000000000000000000000000000000167bffffffffffffffffffffffffffffffffffffffffffffffffffffffff19167bffffffffffffffffffffffffffffffffffffffffffffffffffffffff1916815260200190815260200160002060009054906101000a900473ffffffffffffffffffffffffffffffffffffffff169050600073ffffffffffffffffffffffffffffffffffffffff168173ffffffffffffffffffffffffffffffffffffffff1603610151576040517f08c379a000000000000000000000000000000000000000000000000000000000815260040161014890610638565b60405180910390fd5b60008173ffffffffffffffffffffffffffffffffffffffff1660003660405161017b929190610697565b600060405180830381855af49150503d80600081146101b6576040519150601f19603f3d011682016040523d82523d6000602084013e6101bb565b606091505b50509050806101ff576040517f08c379a00000000000000000000000000000000000000000000000000000000081526004016101f6906106fc565b60405180910390fd5b005b34801561020d57600080fd5b50610228600480360381019061022391906108e1565b6102bb565b005b34801561023657600080fd5b50610251600480360381019061024c9190610988565b6103e0565b005b34801561025f57600080fd5b50610268610522565b60405161027591906109f3565b60405180910390f35b34801561028a57600080fd5b506102a560048036038101906102a09190610a0e565b610548565b6040516102b291906109f3565b60405180910390f35b6102c361057b565b73ffffffffffffffffffffffffffffffffffffffff163373ffffffffffffffffffffffffffffffffffffffff1614610330576040517f08c379a000000000000000000000000000000000000000000000000000000000815260040161032790610a87565b60405180910390fd5b60005b81518110156103dc5760008083838151811061035257610351610aa7565b5b60200260200101517bffffffffffffffffffffffffffffffffffffffffffffffffffffffff19167bffffffffffffffffffffffffffffffffffffffffffffffffffffffff1916815260200190815260200160002060006101000a81549073ffffffffffffffffffffffffffffffffffffffff021916905580806103d490610b0f565b915050610333565b5050565b6103e861057b565b73ffffffffffffffffffffffffffffffffffffffff163373ffffffffffffffffffffffffffffffffffffffff1614610455576040517f08c379a000000000000000000000000000000000000000000000000000000000815260040161044c90610a87565b60405180910390fd5b60005b815181101561051d578260008084848151811061047857610477610aa7565b5b60200260200101517bffffffffffffffffffffffffffffffffffffffffffffffffffffffff19167bffffffffffffffffffffffffffffffffffffffffffffffffffffffff1916815260200190815260200160002060006101000a81548173ffffffffffffffffffffffffffffffffffffffff021916908373ffffffffffffffffffffffffffffffffffffffff160217905550808061051590610b0f565b915050610458565b505050565b600160009054906101000a900473ffffffffffffffffffffffffffffffffffffffff1681565b60006020528060005260406000206000915054906101000a900473ffffffffffffffffffffffffffffffffffffffff1681565b60006105856105ae565b60010160009054906101000a900473ffffffffffffffffffffffffffffffffffffffff16905090565b6000807f6fd6f6851971e3953ea076c1994938255f4bba65b0c8e9a21f48109fe76be28690508091505090565b600082825260208201905092915050565b7f46756e6374696f6e20646f6573206e6f74206578697374000000000000000000600082015250565b60006106226017836105db565b915061062d826105ec565b602082019050919050565b6000602082019050818103600083015261065181610615565b9050919050565b600081905092915050565b82818337600083830152505050565b600061067e8385610658565b935061068b838584610663565b82840190509392505050565b60006106a4828486610672565b91508190509392505050565b7f46616365742064656c656761746563616c6c206661696c656400000000000000600082015250565b60006106e66019836105db565b91506106f1826106b0565b602082019050919050565b60006020820190508181036000830152610715816106d9565b9050919050565b6000604051905090565b600080fd5b600080fd5b600080fd5b6000601f19601f8301169050919050565b7f4e487b7100000000000000000000000000000000000000000000000000000000600052604160045260246000fd5b61077e82610735565b810181811067ffffffffffffffff8211171561079d5761079c610746565b5b80604052505050565b60006107b061071c565b90506107bc8282610775565b919050565b600067ffffffffffffffff8211156107dc576107db610746565b5b602082029050602081019050919050565b600080fd5b60007fffffffff0000000000000000000000000000000000000000000000000000000082169050919050565b610827816107f2565b811461083257600080fd5b50565b6000813590506108448161081e565b92915050565b600061085d610858846107c1565b6107a6565b905080838252602082019050602084028301858111156108805761087f6107ed565b5b835b818110156108a957806108958882610835565b845260208401935050602081019050610882565b5050509392505050565b600082601f8301126108c8576108c7610730565b5b81356108d884826020860161084a565b91505092915050565b6000602082840312156108f7576108f6610726565b5b600082013567ffffffffffffffff8111156109155761091461072b565b5b610921848285016108b3565b91505092915050565b600073ffffffffffffffffffffffffffffffffffffffff82169050919050565b60006109558261092a565b9050919050565b6109658161094a565b811461097057600080fd5b50565b6000813590506109828161095c565b92915050565b6000806040838503121561099f5761099e610726565b5b60006109ad85828601610973565b925050602083013567ffffffffffffffff8111156109ce576109cd61072b565b5b6109da858286016108b3565b9150509250929050565b6109ed8161094a565b82525050565b6000602082019050610a0860008301846109e4565b92915050565b600060208284031215610a2457610a23610726565b5b6000610a3284828501610835565b91505092915050565b7f4e6f7420636f6e7472616374206f776e65720000000000000000000000000000600082015250565b6000610a716012836105db565b9150610a7c82610a3b565b602082019050919050565b60006020820190508181036000830152610aa081610a64565b9050919050565b7f4e487b7100000000000000000000000000000000000000000000000000000000600052603260045260246000fd5b7f4e487b7100000000000000000000000000000000000000000000000000000000600052601160045260246000fd5b6000819050919050565b6000610b1a82610b05565b91507fffffffffffffffffffffffffffffffffffffffffffffffffffffffffffffffff8203610b4c57610b4b610ad6565b5b60018201905091905056fea26469706673582212207ccbd17950183ea0f72ba16cc4a777bcd0c30eab467e3abf2cf8c9cd31ae27e064736f6c63430008140033",
  "linkReferences": {},
  "deployedLinkReferences": {}
}