{
  "contracts/contractA.sol": {
    "contractA": {
      "abi": [
        {
          "inputs": [],
          "name": "valGetter",
          "outputs": [
            {
              "internalType": "uint256",
              "name": "val",
              "type": "uint256"
            }
          ],
          "stateMutability": "view",
          "type": "function"
        },
        {
          "inputs": [
            {
              "internalType": "uint256",
              "name": "val",
              "type": "uint256"
            }
          ],
          "name": "valSetter",
          "outputs": [],
          "stateMutability": "nonpayable",
          "type": "function"
        }
      ],
      "evm": {
        "bytecode": {
          "linkReferences": {},
          "object": "608060405234801561001057600080fd5b5061023c806100206000396000f3fe608060405234801561001057600080fd5b50600436106100365760003560e01c8063252243041461003b5780634582426414610059575b600080fd5b610043610075565b604051610050919061012a565b60405180910390f35b610073600480360381019061006e9190610176565b610084565b005b600061007f6100a8565b905090565b600061008e6100a8565b8261009991906101d2565b90506100a4816100bb565b5050565b60006100b26100e4565b60000154905090565b806100c46100e4565b600001546100d291906101d2565b6100da6100e4565b6000018190555050565b6000807f6fd6f6851971e3953ea076c1994938255f4bba65b0c8e9a21f48109fe76be28690508091505090565b6000819050919050565b61012481610111565b82525050565b600060208201905061013f600083018461011b565b92915050565b600080fd5b61015381610111565b811461015e57600080fd5b50565b6000813590506101708161014a565b92915050565b60006020828403121561018c5761018b610145565b5b600061019a84828501610161565b91505092915050565b7f4e487b7100000000000000000000000000000000000000000000000000000000600052601160045260246000fd5b60006101dd82610111565b91506101e883610111565b9250828201905080821115610200576101ff6101a3565b5b9291505056fea2646970667358221220048311fe8704dc517d896e90c037e25b63ef97822ad96bcec115b8aaed73d7cd64736f6c63430008140033",
          "opcodes": "PUSH1 0x80 PUSH1 0x40 MSTORE CALLVALUE DUP1 ISZERO PUSH2 0x10 JUMPI PUSH1 0x0 DUP1 REVERT JUMPDEST POP PUSH2 0x23C DUP1 PUSH2 0x20 PUSH1 0x0 CODECOPY PUSH1 0x0 RETURN INVALID PUSH1 0x80 PUSH1 0x40 MSTORE CALLVALUE DUP1 ISZERO PUSH2 0x10 JUMPI PUSH1 0x0 DUP1 REVERT JUMPDEST POP PUSH1 0x4 CALLDATASIZE LT PUSH2 0x36 JUMPI PUSH1 0x0 CALLDATALOAD PUSH1 0xE0 SHR DUP1 PUSH4 0x25224304 EQ PUSH2 0x3B JUMPI DUP1 PUSH4 0x45824264 EQ PUSH2 0x59 JUMPI JUMPDEST PUSH1 0x0 DUP1 REVERT JUMPDEST PUSH2 0x43 PUSH2 0x75 JUMP JUMPDEST PUSH1 0x40 MLOAD PUSH2 0x50 SWAP2 SWAP1 PUSH2 0x12A JUMP JUMPDEST PUSH1 0x40 MLOAD DUP1 SWAP2 SUB SWAP1 RETURN JUMPDEST PUSH2 0x73 PUSH1 0x4 DUP1 CALLDATASIZE SUB DUP2 ADD SWAP1 PUSH2 0x6E SWAP2 SWAP1 PUSH2 0x176 JUMP JUMPDEST PUSH2 0x84 JUMP JUMPDEST STOP JUMPDEST PUSH1 0x0 PUSH2 0x7F PUSH2 0xA8 JUMP JUMPDEST SWAP1 POP SWAP1 JUMP JUMPDEST PUSH1 0x0 PUSH2 0x8E PUSH2 0xA8 JUMP JUMPDEST DUP3 PUSH2 0x99 SWAP2 SWAP1 PUSH2 0x1D2 JUMP JUMPDEST SWAP1 POP PUSH2 0xA4 DUP2 PUSH2 0xBB JUMP JUMPDEST POP POP JUMP JUMPDEST PUSH1 0x0 PUSH2 0xB2 PUSH2 0xE4 JUMP JUMPDEST PUSH1 0x0 ADD SLOAD SWAP1 POP SWAP1 JUMP JUMPDEST DUP1 PUSH2 0xC4 PUSH2 0xE4 JUMP JUMPDEST PUSH1 0x0 ADD SLOAD PUSH2 0xD2 SWAP2 SWAP1 PUSH2 0x1D2 JUMP JUMPDEST PUSH2 0xDA PUSH2 0xE4 JUMP JUMPDEST PUSH1 0x0 ADD DUP2 SWAP1 SSTORE POP POP JUMP JUMPDEST PUSH1 0x0 DUP1 PUSH32 0x6FD6F6851971E3953EA076C1994938255F4BBA65B0C8E9A21F48109FE76BE286 SWAP1 POP DUP1 SWAP2 POP POP SWAP1 JUMP JUMPDEST PUSH1 0x0 DUP2 SWAP1 POP SWAP2 SWAP1 POP JUMP JUMPDEST PUSH2 0x124 DUP2 PUSH2 0x111 JUMP JUMPDEST DUP3 MSTORE POP POP JUMP JUMPDEST PUSH1 0x0 PUSH1 0x20 DUP3 ADD SWAP1 POP PUSH2 0x13F PUSH1 0x0 DUP4 ADD DUP5 PUSH2 0x11B JUMP JUMPDEST SWAP3 SWAP2 POP POP JUMP JUMPDEST PUSH1 0x0 DUP1 REVERT JUMPDEST PUSH2 0x153 DUP2 PUSH2 0x111 JUMP JUMPDEST DUP2 EQ PUSH2 0x15E JUMPI PUSH1 0x0 DUP1 REVERT JUMPDEST POP JUMP JUMPDEST PUSH1 0x0 DUP2 CALLDATALOAD SWAP1 POP PUSH2 0x170 DUP2 PUSH2 0x14A JUMP JUMPDEST SWAP3 SWAP2 POP POP JUMP JUMPDEST PUSH1 0x0 PUSH1 0x20 DUP3 DUP5 SUB SLT ISZERO PUSH2 0x18C JUMPI PUSH2 0x18B PUSH2 0x145 JUMP JUMPDEST JUMPDEST PUSH1 0x0 PUSH2 0x19A DUP5 DUP3 DUP6 ADD PUSH2 0x161 JUMP JUMPDEST SWAP2 POP POP SWAP3 SWAP2 POP POP JUMP JUMPDEST PUSH32 0x4E487B7100000000000000000000000000000000000000000000000000000000 PUSH1 0x0 MSTORE PUSH1 0x11 PUSH1 0x4 MSTORE PUSH1 0x24 PUSH1 0x0 REVERT JUMPDEST PUSH1 0x0 PUSH2 0x1DD DUP3 PUSH2 0x111 JUMP JUMPDEST SWAP2 POP PUSH2 0x1E8 DUP4 PUSH2 0x111 JUMP JUMPDEST SWAP3 POP DUP3 DUP3 ADD SWAP1 POP DUP1 DUP3 GT ISZERO PUSH2 0x200 JUMPI PUSH2 0x1FF PUSH2 0x1A3 JUMP JUMPDEST JUMPDEST SWAP3 SWAP2 POP POP JUMP INVALID LOG2 PUSH5 0x6970667358 0x22 SLT KECCAK256 DIV DUP4 GT INVALID DUP8 DIV 0xDC MLOAD PUSH30 0x896E90C037E25B63EF97822AD96BCEC115B8AAED73D7CD64736F6C634300 ADDMOD EQ STOP CALLER "
        },
        "methodIdentifiers": {
          "valGetter()": "25224304",
          "valSetter(uint256)": "45824264"
        }
      }
    }
  }
}